{
  "contractName": "YidengToken",
  "abi": [
    {
      "inputs": [
        {
          "internalType": "string",
          "name": "name",
          "type": "string"
        },
        {
          "internalType": "string",
          "name": "symbol",
          "type": "string"
        },
        {
          "internalType": "address",
          "name": "initialOwner",
          "type": "address"
        }
      ],
      "stateMutability": "nonpayable",
      "type": "constructor"
    },
    {
      "inputs": [
        {
          "internalType": "address",
          "name": "spender",
          "type": "address"
        },
        {
          "internalType": "uint256",
          "name": "allowance",
          "type": "uint256"
        },
        {
          "internalType": "uint256",
          "name": "needed",
          "type": "uint256"
        }
      ],
      "name": "ERC20InsufficientAllowance",
      "type": "error"
    },
    {
      "inputs": [
        {
          "internalType": "address",
          "name": "sender",
          "type": "address"
        },
        {
          "internalType": "uint256",
          "name": "balance",
          "type": "uint256"
        },
        {
          "internalType": "uint256",
          "name": "needed",
          "type": "uint256"
        }
      ],
      "name": "ERC20InsufficientBalance",
      "type": "error"
    },
    {
      "inputs": [
        {
          "internalType": "address",
          "name": "approver",
          "type": "address"
        }
      ],
      "name": "ERC20InvalidApprover",
      "type": "error"
    },
    {
      "inputs": [
        {
          "internalType": "address",
          "name": "receiver",
          "type": "address"
        }
      ],
      "name": "ERC20InvalidReceiver",
      "type": "error"
    },
    {
      "inputs": [
        {
          "internalType": "address",
          "name": "sender",
          "type": "address"
        }
      ],
      "name": "ERC20InvalidSender",
      "type": "error"
    },
    {
      "inputs": [
        {
          "internalType": "address",
          "name": "spender",
          "type": "address"
        }
      ],
      "name": "ERC20InvalidSpender",
      "type": "error"
    },
    {
      "inputs": [
        {
          "internalType": "address",
          "name": "owner",
          "type": "address"
        }
      ],
      "name": "OwnableInvalidOwner",
      "type": "error"
    },
    {
      "inputs": [
        {
          "internalType": "address",
          "name": "account",
          "type": "address"
        }
      ],
      "name": "OwnableUnauthorizedAccount",
      "type": "error"
    },
    {
      "anonymous": false,
      "inputs": [
        {
          "indexed": true,
          "internalType": "address",
          "name": "owner",
          "type": "address"
        },
        {
          "indexed": true,
          "internalType": "address",
          "name": "spender",
          "type": "address"
        },
        {
          "indexed": false,
          "internalType": "uint256",
          "name": "value",
          "type": "uint256"
        }
      ],
      "name": "Approval",
      "type": "event"
    },
    {
      "anonymous": false,
      "inputs": [
        {
          "indexed": true,
          "internalType": "address",
          "name": "previousOwner",
          "type": "address"
        },
        {
          "indexed": true,
          "internalType": "address",
          "name": "newOwner",
          "type": "address"
        }
      ],
      "name": "OwnershipTransferred",
      "type": "event"
    },
    {
      "anonymous": false,
      "inputs": [
        {
          "indexed": true,
          "internalType": "address",
          "name": "from",
          "type": "address"
        },
        {
          "indexed": true,
          "internalType": "address",
          "name": "to",
          "type": "address"
        },
        {
          "indexed": false,
          "internalType": "uint256",
          "name": "value",
          "type": "uint256"
        }
      ],
      "name": "Transfer",
      "type": "event"
    },
    {
      "inputs": [],
      "name": "INITIAL_SUPPLY",
      "outputs": [
        {
          "internalType": "uint256",
          "name": "",
          "type": "uint256"
        }
      ],
      "stateMutability": "view",
      "type": "function",
      "constant": true
    },
    {
      "inputs": [
        {
          "internalType": "address",
          "name": "owner",
          "type": "address"
        },
        {
          "internalType": "address",
          "name": "spender",
          "type": "address"
        }
      ],
      "name": "allowance",
      "outputs": [
        {
          "internalType": "uint256",
          "name": "",
          "type": "uint256"
        }
      ],
      "stateMutability": "view",
      "type": "function",
      "constant": true
    },
    {
      "inputs": [
        {
          "internalType": "address",
          "name": "spender",
          "type": "address"
        },
        {
          "internalType": "uint256",
          "name": "value",
          "type": "uint256"
        }
      ],
      "name": "approve",
      "outputs": [
        {
          "internalType": "bool",
          "name": "",
          "type": "bool"
        }
      ],
      "stateMutability": "nonpayable",
      "type": "function"
    },
    {
      "inputs": [
        {
          "internalType": "address",
          "name": "account",
          "type": "address"
        }
      ],
      "name": "balanceOf",
      "outputs": [
        {
          "internalType": "uint256",
          "name": "",
          "type": "uint256"
        }
      ],
      "stateMutability": "view",
      "type": "function",
      "constant": true
    },
    {
      "inputs": [],
      "name": "decimals",
      "outputs": [
        {
          "internalType": "uint8",
          "name": "",
          "type": "uint8"
        }
      ],
      "stateMutability": "view",
      "type": "function",
      "constant": true
    },
    {
      "inputs": [],
      "name": "name",
      "outputs": [
        {
          "internalType": "string",
          "name": "",
          "type": "string"
        }
      ],
      "stateMutability": "view",
      "type": "function",
      "constant": true
    },
    {
      "inputs": [],
      "name": "owner",
      "outputs": [
        {
          "internalType": "address",
          "name": "",
          "type": "address"
        }
      ],
      "stateMutability": "view",
      "type": "function",
      "constant": true
    },
    {
      "inputs": [],
      "name": "renounceOwnership",
      "outputs": [],
      "stateMutability": "nonpayable",
      "type": "function"
    },
    {
      "inputs": [],
      "name": "symbol",
      "outputs": [
        {
          "internalType": "string",
          "name": "",
          "type": "string"
        }
      ],
      "stateMutability": "view",
      "type": "function",
      "constant": true
    },
    {
      "inputs": [],
      "name": "totalSupply",
      "outputs": [
        {
          "internalType": "uint256",
          "name": "",
          "type": "uint256"
        }
      ],
      "stateMutability": "view",
      "type": "function",
      "constant": true
    },
    {
      "inputs": [
        {
          "internalType": "address",
          "name": "to",
          "type": "address"
        },
        {
          "internalType": "uint256",
          "name": "value",
          "type": "uint256"
        }
      ],
      "name": "transfer",
      "outputs": [
        {
          "internalType": "bool",
          "name": "",
          "type": "bool"
        }
      ],
      "stateMutability": "nonpayable",
      "type": "function"
    },
    {
      "inputs": [
        {
          "internalType": "address",
          "name": "from",
          "type": "address"
        },
        {
          "internalType": "address",
          "name": "to",
          "type": "address"
        },
        {
          "internalType": "uint256",
          "name": "value",
          "type": "uint256"
        }
      ],
      "name": "transferFrom",
      "outputs": [
        {
          "internalType": "bool",
          "name": "",
          "type": "bool"
        }
      ],
      "stateMutability": "nonpayable",
      "type": "function"
    },
    {
      "inputs": [
        {
          "internalType": "address",
          "name": "newOwner",
          "type": "address"
        }
      ],
      "name": "transferOwnership",
      "outputs": [],
      "stateMutability": "nonpayable",
      "type": "function"
    },
    {
      "inputs": [
        {
          "internalType": "address",
          "name": "to",
          "type": "address"
        },
        {
          "internalType": "uint256",
          "name": "amount",
          "type": "uint256"
        }
      ],
      "name": "mint",
      "outputs": [],
      "stateMutability": "nonpayable",
      "type": "function"
    },
    {
      "inputs": [
        {
          "internalType": "uint256",
          "name": "amount",
          "type": "uint256"
        }
      ],
      "name": "burn",
      "outputs": [],
      "stateMutability": "nonpayable",
      "type": "function"
    }
  ],
  "bytecode": "0x60806040523480156200001157600080fd5b506040516200122f3803806200122f8339810160408190526200003491620003e2565b808383600362000045838262000517565b50600462000054828262000517565b505050600160a060020a038116620000a0576040517f1e4fbdf7000000000000000000000000000000000000000000000000000000008152600060048201526024015b60405180910390fd5b620000b48164010000000062000101810204565b50620000f881620000cd64010000000062000153810204565b620000da90600a6200071a565b620000e990620f424062000732565b64010000000062000158810204565b50505062000762565b60058054600160a060020a03838116600160a060020a0319831681179093556040519116919082907f8be0079c531659141344cd1fd0a4f28419497f9722a3daafe3b4186f6b6457e090600090a35050565b601290565b600160a060020a0382166200019d576040517fec442f050000000000000000000000000000000000000000000000000000000081526000600482015260240162000097565b620001b460008383640100000000620001b8810204565b5050565b600160a060020a038316620001e7578060026000828254620001db91906200074c565b90915550620002749050565b600160a060020a0383166000908152602081905260409020548181101562000255576040517fe450d38c000000000000000000000000000000000000000000000000000000008152600160a060020a0385166004820152602481018290526044810183905260640162000097565b600160a060020a03841660009081526020819052604090209082900390555b600160a060020a0382166200029257600280548290039055620002b1565b600160a060020a03821660009081526020819052604090208054820190555b81600160a060020a031683600160a060020a03167fddf252ad1be2c89b69c2b068fc378daa952ba7f163c4a11628f55a4df523b3ef83604051620002f791815260200190565b60405180910390a3505050565b7f4e487b7100000000000000000000000000000000000000000000000000000000600052604160045260246000fd5b600082601f8301126200034557600080fd5b81516001604060020a038082111562000362576200036262000304565b604051601f8301601f19908116603f011681019082821181831017156200038d576200038d62000304565b81604052838152602092508683858801011115620003aa57600080fd5b600091505b83821015620003ce5785820183015181830184015290820190620003af565b600093810190920192909252949350505050565b600080600060608486031215620003f857600080fd5b83516001604060020a03808211156200041057600080fd5b6200041e8783880162000333565b945060208601519150808211156200043557600080fd5b50620004448682870162000333565b60408601519093509050600160a060020a03811681146200046457600080fd5b809150509250925092565b6002810460018216806200048457607f821691505b602082108103620004be577f4e487b7100000000000000000000000000000000000000000000000000000000600052602260045260246000fd5b50919050565b601f82111562000512576000818152602081206020601f86010481016020861015620004ed5750805b6020601f860104820191505b818110156200050e57828155600101620004f9565b5050505b505050565b81516001604060020a0381111562000533576200053362000304565b6200054b816200054484546200046f565b84620004c4565b602080601f8311600181146200058757600084156200056a5750858301515b60028086026008870290910a60001904198216178655506200050e565b600085815260208120601f198616915b82811015620005b85788860151825594840194600190910190840162000597565b5085821015620005d957878501516008601f88160260020a60001904191681555b5050505050600202600101905550565b7f4e487b7100000000000000000000000000000000000000000000000000000000600052601160045260246000fd5b600181815b808511156200065b5781600019048211156200063d576200063d620005e9565b808516156200064b57918102915b600290940493908002906200061d565b509250929050565b600082620006745750600162000714565b81620006835750600062000714565b81600181146200069c5760028114620006a757620006c8565b600191505062000714565b60ff841115620006bb57620006bb620005e9565b8360020a91505062000714565b5060208310610133831016604e8410600b8410161715620006ed575081810a62000714565b620006f9838362000618565b8060001904821115620007105762000710620005e9565b0290505b92915050565b60006200072b60ff84168362000663565b9392505050565b8082028115828204841417620007145762000714620005e9565b80820180821115620007145762000714620005e9565b610abd80620007726000396000f3fe608060405234801561001057600080fd5b5060043610610112576000357c01000000000000000000000000000000000000000000000000000000009004806342966c68116100b457806395d89b411161008357806395d89b4114610211578063a9059cbb14610219578063dd62ed3e1461022c578063f2fde38b1461026557600080fd5b806342966c68146101b257806370a08231146101c5578063715018a6146101ee5780638da5cb5b146101f657600080fd5b806323b872dd116100f057806323b872dd1461016a5780632ff2e9dc1461017d578063313ce5671461018e57806340c10f191461019d57600080fd5b806306fdde0314610117578063095ea7b31461013557806318160ddd14610158575b600080fd5b61011f610278565b60405161012c91906108bc565b60405180910390f35b610148610143366004610926565b61030a565b604051901515815260200161012c565b6002545b60405190815260200161012c565b610148610178366004610950565b610324565b61015c69d3c21bcecceda100000081565b6040516012815260200161012c565b6101b06101ab366004610926565b610348565b005b6101b06101c036600461098c565b61035e565b61015c6101d33660046109a5565b600160a060020a031660009081526020819052604090205490565b6101b061036b565b600554604051600160a060020a03909116815260200161012c565b61011f61037f565b610148610227366004610926565b61038e565b61015c61023a3660046109c7565b600160a060020a03918216600090815260016020908152604080832093909416825291909152205490565b6101b06102733660046109a5565b61039c565b606060038054610287906109fa565b80601f01602080910402602001604051908101604052809291908181526020018280546102b3906109fa565b80156103005780601f106102d557610100808354040283529160200191610300565b820191906000526020600020905b8154815290600101906020018083116102e357829003601f168201915b5050505050905090565b6000336103188185856103f5565b60019150505b92915050565b600033610332858285610407565b61033d85858561049e565b506001949350505050565b61035061052f565b61035a8282610575565b5050565b61036833826105c4565b50565b61037361052f565b61037d6000610613565b565b606060048054610287906109fa565b60003361031881858561049e565b6103a461052f565b600160a060020a0381166103ec576040517f1e4fbdf7000000000000000000000000000000000000000000000000000000008152600060048201526024015b60405180910390fd5b61036881610613565b6104028383836001610672565b505050565b600160a060020a0383811660009081526001602090815260408083209386168352929052205460001981146104985781811015610489576040517ffb8f41b2000000000000000000000000000000000000000000000000000000008152600160a060020a038416600482015260248101829052604481018390526064016103e3565b61049884848484036000610672565b50505050565b600160a060020a0383166104e1576040517f96c6fd1e000000000000000000000000000000000000000000000000000000008152600060048201526024016103e3565b600160a060020a038216610524576040517fec442f05000000000000000000000000000000000000000000000000000000008152600060048201526024016103e3565b610402838383610779565b600554600160a060020a0316331461037d576040517f118cdaa70000000000000000000000000000000000000000000000000000000081523360048201526024016103e3565b600160a060020a0382166105b8576040517fec442f05000000000000000000000000000000000000000000000000000000008152600060048201526024016103e3565b61035a60008383610779565b600160a060020a038216610607576040517f96c6fd1e000000000000000000000000000000000000000000000000000000008152600060048201526024016103e3565b61035a82600083610779565b60058054600160a060020a0383811673ffffffffffffffffffffffffffffffffffffffff19831681179093556040519116919082907f8be0079c531659141344cd1fd0a4f28419497f9722a3daafe3b4186f6b6457e090600090a35050565b600160a060020a0384166106b5576040517fe602df05000000000000000000000000000000000000000000000000000000008152600060048201526024016103e3565b600160a060020a0383166106f8576040517f94280d62000000000000000000000000000000000000000000000000000000008152600060048201526024016103e3565b600160a060020a03808516600090815260016020908152604080832093871683529290522082905580156104985782600160a060020a031684600160a060020a03167f8c5be1e5ebec7d5bd14f71427d1e84f3dd0314c0f7b2291e5b200ac8c7c3b9258460405161076b91815260200190565b60405180910390a350505050565b600160a060020a0383166107a45780600260008282546107999190610a4d565b9091555061082f9050565b600160a060020a03831660009081526020819052604090205481811015610810576040517fe450d38c000000000000000000000000000000000000000000000000000000008152600160a060020a038516600482015260248101829052604481018390526064016103e3565b600160a060020a03841660009081526020819052604090209082900390555b600160a060020a03821661084b5760028054829003905561086a565b600160a060020a03821660009081526020819052604090208054820190555b81600160a060020a031683600160a060020a03167fddf252ad1be2c89b69c2b068fc378daa952ba7f163c4a11628f55a4df523b3ef836040516108af91815260200190565b60405180910390a3505050565b600060208083528351808285015260005b818110156108e9578581018301518582016040015282016108cd565b506000604082860101526040601f19601f8301168501019250505092915050565b8035600160a060020a038116811461092157600080fd5b919050565b6000806040838503121561093957600080fd5b6109428361090a565b946020939093013593505050565b60008060006060848603121561096557600080fd5b61096e8461090a565b925061097c6020850161090a565b9150604084013590509250925092565b60006020828403121561099e57600080fd5b5035919050565b6000602082840312156109b757600080fd5b6109c08261090a565b9392505050565b600080604083850312156109da57600080fd5b6109e38361090a565b91506109f16020840161090a565b90509250929050565b600281046001821680610a0e57607f821691505b602082108103610a47577f4e487b7100000000000000000000000000000000000000000000000000000000600052602260045260246000fd5b50919050565b8082018082111561031e577f4e487b7100000000000000000000000000000000000000000000000000000000600052601160045260246000fdfea2646970667358221220e7f7b173671066fd8ff0cd07cce631756ed027581b971ed20358871d46bdca1364736f6c63430008140033",
  "immutableReferences": {},
  "source": "// SPDX-License-Identifier: MIT\r\npragma solidity ^0.8.0;\r\n\r\nimport \"@openzeppelin/contracts/token/ERC20/ERC20.sol\";\r\nimport \"@openzeppelin/contracts/access/Ownable.sol\";\r\n\r\ncontract YidengToken is ERC20, Ownable {\r\n    // \r\n    uint256 public constant INITIAL_SUPPLY = 1000000 * (10 ** 18); // 100  18 \r\n\r\n    constructor(\r\n        string memory name,\r\n        string memory symbol,\r\n        address initialOwner\r\n    ) ERC20(name, symbol) Ownable(initialOwner) {\r\n        // \r\n        _mint(initialOwner, 1000000 * 10 ** decimals());\r\n    }\r\n\r\n    // \r\n    function mint(address to, uint256 amount) external onlyOwner {\r\n        _mint(to, amount);\r\n    }\r\n\r\n    // \r\n    function burn(uint256 amount) external {\r\n        _burn(msg.sender, amount);\r\n    }\r\n}\r\n",
  "sourcePath": "D:\\fight2023-2\\web3\\web3-launchpad\\packages\\yd-contracts\\contracts\\YidengToken.sol",
  "compiler": {
    "name": "solc",
    "version": "0.8.20+commit.a1b79de6.Emscripten.clang"
  },
  "schemaVersion": "3.4.16",
  "updatedAt": "2024-12-12T16:35:35.479Z",
  "networkType": "ethereum",
  "devdoc": {
    "errors": {
      "ERC20InsufficientAllowance(address,uint256,uint256)": [
        {
          "details": "Indicates a failure with the `spender`s `allowance`. Used in transfers.",
          "params": {
            "allowance": "Amount of tokens a `spender` is allowed to operate with.",
            "needed": "Minimum amount required to perform a transfer.",
            "spender": "Address that may be allowed to operate on tokens without being their owner."
          }
        }
      ],
      "ERC20InsufficientBalance(address,uint256,uint256)": [
        {
          "details": "Indicates an error related to the current `balance` of a `sender`. Used in transfers.",
          "params": {
            "balance": "Current balance for the interacting account.",
            "needed": "Minimum amount required to perform a transfer.",
            "sender": "Address whose tokens are being transferred."
          }
        }
      ],
      "ERC20InvalidApprover(address)": [
        {
          "details": "Indicates a failure with the `approver` of a token to be approved. Used in approvals.",
          "params": {
            "approver": "Address initiating an approval operation."
          }
        }
      ],
      "ERC20InvalidReceiver(address)": [
        {
          "details": "Indicates a failure with the token `receiver`. Used in transfers.",
          "params": {
            "receiver": "Address to which tokens are being transferred."
          }
        }
      ],
      "ERC20InvalidSender(address)": [
        {
          "details": "Indicates a failure with the token `sender`. Used in transfers.",
          "params": {
            "sender": "Address whose tokens are being transferred."
          }
        }
      ],
      "ERC20InvalidSpender(address)": [
        {
          "details": "Indicates a failure with the `spender` to be approved. Used in approvals.",
          "params": {
            "spender": "Address that may be allowed to operate on tokens without being their owner."
          }
        }
      ],
      "OwnableInvalidOwner(address)": [
        {
          "details": "The owner is not a valid owner account. (eg. `address(0)`)"
        }
      ],
      "OwnableUnauthorizedAccount(address)": [
        {
          "details": "The caller account is not authorized to perform an operation."
        }
      ]
    },
    "events": {
      "Approval(address,address,uint256)": {
        "details": "Emitted when the allowance of a `spender` for an `owner` is set by a call to {approve}. `value` is the new allowance."
      },
      "Transfer(address,address,uint256)": {
        "details": "Emitted when `value` tokens are moved from one account (`from`) to another (`to`). Note that `value` may be zero."
      }
    },
    "kind": "dev",
    "methods": {
      "allowance(address,address)": {
        "details": "See {IERC20-allowance}."
      },
      "approve(address,uint256)": {
        "details": "See {IERC20-approve}. NOTE: If `value` is the maximum `uint256`, the allowance is not updated on `transferFrom`. This is semantically equivalent to an infinite approval. Requirements: - `spender` cannot be the zero address."
      },
      "balanceOf(address)": {
        "details": "See {IERC20-balanceOf}."
      },
      "decimals()": {
        "details": "Returns the number of decimals used to get its user representation. For example, if `decimals` equals `2`, a balance of `505` tokens should be displayed to a user as `5.05` (`505 / 10 ** 2`). Tokens usually opt for a value of 18, imitating the relationship between Ether and Wei. This is the default value returned by this function, unless it's overridden. NOTE: This information is only used for _display_ purposes: it in no way affects any of the arithmetic of the contract, including {IERC20-balanceOf} and {IERC20-transfer}."
      },
      "name()": {
        "details": "Returns the name of the token."
      },
      "owner()": {
        "details": "Returns the address of the current owner."
      },
      "renounceOwnership()": {
        "details": "Leaves the contract without owner. It will not be possible to call `onlyOwner` functions. Can only be called by the current owner. NOTE: Renouncing ownership will leave the contract without an owner, thereby disabling any functionality that is only available to the owner."
      },
      "symbol()": {
        "details": "Returns the symbol of the token, usually a shorter version of the name."
      },
      "totalSupply()": {
        "details": "See {IERC20-totalSupply}."
      },
      "transfer(address,uint256)": {
        "details": "See {IERC20-transfer}. Requirements: - `to` cannot be the zero address. - the caller must have a balance of at least `value`."
      },
      "transferFrom(address,address,uint256)": {
        "details": "See {IERC20-transferFrom}. Skips emitting an {Approval} event indicating an allowance update. This is not required by the ERC. See {xref-ERC20-_approve-address-address-uint256-bool-}[_approve]. NOTE: Does not update the allowance if the current allowance is the maximum `uint256`. Requirements: - `from` and `to` cannot be the zero address. - `from` must have a balance of at least `value`. - the caller must have allowance for ``from``'s tokens of at least `value`."
      },
      "transferOwnership(address)": {
        "details": "Transfers ownership of the contract to a new account (`newOwner`). Can only be called by the current owner."
      }
    },
    "version": 1
  },
  "userdoc": {
    "kind": "user",
    "methods": {},
    "version": 1
  }
}